package action

import (
	"bytes"
	"encoding/hex"
	"math/big"
	"testing"

	"github.com/ethereum/go-ethereum/core/types"
	"github.com/ethereum/go-ethereum/rlp"
	"github.com/iotexproject/go-pkgs/crypto"
	"github.com/iotexproject/go-pkgs/hash"
	"github.com/iotexproject/iotex-address/address"
	"github.com/iotexproject/iotex-proto/golang/iotextypes"
	"github.com/stretchr/testify/require"
	"google.golang.org/protobuf/proto"

	"github.com/iotexproject/iotex-core/config"
)

func TestGenerateRlp(t *testing.T) {
	require := require.New(t)

	ab := AbstractAction{
		version:  1,
		nonce:    2,
		gasLimit: 1000,
		gasPrice: new(big.Int),
	}
	rlpTsf := &Transfer{
		AbstractAction: ab,
		recipient:      "io1x9qa70ewgs24xwak66lz5dgm9ku7ap80vw3071",
	}
	rlpTsf1 := &Transfer{
		AbstractAction: ab,
		amount:         big.NewInt(100),
		recipient:      "",
	}
	hT1, _ := hex.DecodeString("87e39e819193ae46472eb1320739b34c4c3b38ea321c7cc503432bdcfd0cbf15")
	rlpTsf2 := &Transfer{
		AbstractAction: ab,
		recipient:      "io1x9qa70ewgs24xwak66lz5dgm9ku7ap80vw3070",
	}
	hT2, _ := hex.DecodeString("eaaf38a552809a9bdb1509c8093bd2c74eb07baff862dae692c1d2b865478b14")
	rlpExec := &Execution{
		AbstractAction: ab,
		amount:         big.NewInt(100),
		data:           signByte,
	}
	hE1, _ := hex.DecodeString("fcdd0c3d07f438d6e67ea852b40e5dc256d75f5e1fa9ac3ca96030efeb634150")
	rlpExec1 := &Execution{
		AbstractAction: ab,
		contract:       "io1x9qa70ewgs24xwak66lz5dgm9ku7ap80vw3070",
		amount:         big.NewInt(100),
		data:           signByte,
	}
	hE2, _ := hex.DecodeString("fee3db88ee7d7defa9eded672d08fc8641f760f3a11d404a53276ad6f412b8a5")
	rlpTests := []struct {
		act  Action
		sig  []byte
		err  string
		hash hash.Hash256
	}{
		{nil, validSig, ErrNilAction.Error(), hash.ZeroHash256},
		{rlpTsf, validSig, "address prefix io don't match", hash.ZeroHash256},
		{rlpTsf1, signByte, "address prefix io don't match", hash.ZeroHash256},
		{rlpTsf1, validSig, "", hash.BytesToHash256(hT1)},
		{rlpTsf2, validSig, "", hash.BytesToHash256(hT2)},
		{rlpExec, validSig, "", hash.BytesToHash256(hE1)},
		{rlpExec1, validSig, "", hash.BytesToHash256(hE2)},
	}

	for _, v := range rlpTests {
		act, ok := v.act.(EthCompatibleAction)
		if !ok {
			require.Contains(v.err, ErrNilAction.Error())
			continue
		}
		tx, err := act.ToEthTx()
		if err != nil {
			require.Contains(err.Error(), v.err)
			continue
		}
		h, err := rlpSignedHash(tx, 4689, v.sig)
		if err != nil {
			require.Contains(err.Error(), v.err)
		}
		require.Equal(v.hash, h)
	}
}

func TestRlpDecodeVerify(t *testing.T) {
	// register the extern chain ID
	config.SetEVMNetworkID(config.Default.Chain.EVMNetworkID)

	require := require.New(t)

	rlpTests := []struct {
		actType string
		raw     string
		nonce   uint64
		limit   uint64
		price   string
		amount  string
		to      string

		dataLen int
		hash    string
		pubkey  string
		pkhash  string
	}{
		{
			"transfer",
			"f86e8085e8d4a51000825208943141df3f2e4415533bb6d6be2a351b2db9ee84ef88016345785d8a0000808224c6a0204d25fc0d7d8b3fdf162c6ee820f888f5533b1c382d79d5cbc8ec1d9091a9a8a016f1a58d7e0d0fd24be800f64a2d6433c5fcb31e3fc7562b7fbe62bc382a95bb",
			0,
			21000,
			"1000000000000",
			"100000000000000000",
			"0x3141df3f2e4415533bb6d6be2A351B2db9ee84EF",
			0,
			"eead45fe6b510db9ed6dce9187280791c04bbaadd90c54a7f4b1f75ced382ff1",
			"041ba784140be115e8fa8698933e9318558a895c75c7943100f0677e4d84ff2763ff68720a0d22c12d093a2d692d1e8292c3b7672fccf3b3db46a6e0bdad93be17",
			"87eea07540789af85b64947aea21a3f00400b597",
		},
		{
			"execution",
			"f8ab0d85e8d4a5100082520894ac7ac39de679b19aae042c0ce19facb86e0a411780b844a9059cbb0000000000000000000000003141df3f2e4415533bb6d6be2a351b2db9ee84ef000000000000000000000000000000000000000000000000000000003b9aca008224c5a0fac4e25db03c99fec618b74a962d322a334234696eb62c7e5b9889132ff4f4d7a02c88e451572ca36b6f690ce23ff9d6695dd71e888521fa706a8fc8c279099a61",
			13,
			21000,
			"1000000000000",
			"0",
			"0xAC7AC39De679b19AaE042c0cE19fAcB86e0A4117",
			68,
			"7467dd6ccd4f3d7b6dc0002b26a45ad0b75a1793da4e3557cf6ff2582cbe25c9",
			"041ba784140be115e8fa8698933e9318558a895c75c7943100f0677e4d84ff2763ff68720a0d22c12d093a2d692d1e8292c3b7672fccf3b3db46a6e0bdad93be17",
			"87eea07540789af85b64947aea21a3f00400b597",
		},
		{
			"execution",
			"f9024f2e830f42408381b3208080b901fc608060405234801561001057600080fd5b50336000806101000a81548173ffffffffffffffffffffffffffffffffffffffff021916908373ffffffffffffffffffffffffffffffffffffffff16021790555061019c806100606000396000f3fe608060405234801561001057600080fd5b50600436106100415760003560e01c8063445df0ac146100465780638da5cb5b14610064578063fdacd576146100ae575b600080fd5b61004e6100dc565b6040518082815260200191505060405180910390f35b61006c6100e2565b604051808273ffffffffffffffffffffffffffffffffffffffff1673ffffffffffffffffffffffffffffffffffffffff16815260200191505060405180910390f35b6100da600480360360208110156100c457600080fd5b8101908080359060200190929190505050610107565b005b60015481565b6000809054906101000a900473ffffffffffffffffffffffffffffffffffffffff1681565b6000809054906101000a900473ffffffffffffffffffffffffffffffffffffffff1673ffffffffffffffffffffffffffffffffffffffff163373ffffffffffffffffffffffffffffffffffffffff16141561016457806001819055505b5056fea265627a7a72315820e54fe55a78b9d8bec22b4d3e6b94b7e59799daee3940423eb1aa30fe643eeb9a64736f6c634300051000328224c5a0439310c2d5509fc42486171b910cf8107542c86e23202a3a8ba43129cabcdbfea038966d36b41916f619c64bdc8c3ddcb021b35ea95d44875eb8201e9422fd98f0",
			46,
			8500000,
			"1000000",
			"0",
			EmptyAddress,
			508,
			"b676128dae841742e3ab6e518acb30badc6b26230fe870821d1de08c85823067",
			"049c6567f527f8fc98c0875d3d80097fcb4d5b7bfe037fc9dd5dbeaf563d58d7ff17a4f2b85df9734ecdb276622738e28f0b7cf224909ab7b128c5ca748729b0d2",
			"1904bfcb93edc9bf961eead2e5c0de81dcc1d37d",
		},
		{
			"stakeCreate",
			"f901670980828ca09404c22afae6a03438b8fed74cb1cf441168df3f1280b90104a3d374c400000000000000000000000000000000000000000000000000000000000000a000000000000000000000000000000000000000000000000000000000000000640000000000000000000000000000000000000000000000000000000000000007000000000000000000000000000000000000000000000000000000000000000000000000000000000000000000000000000000000000000000000000000000e00000000000000000000000000000000000000000000000000000000000000004746573740000000000000000000000000000000000000000000000000000000000000000000000000000000000000000000000000000000000000000000000008224c6a02d359322fb1eb0ef44008b587d28160fb237ae716da2735aef9ce2702af52151a03518f334c585c31cec1d9c0ec81fd4c4f70d3ab661502a5aeb1f6eb07bc01854",
			9,
			36000,
			"0",
			"0",
			"0x04C22AfaE6a03438b8FED74cb1Cf441168DF3F12",
			260,
			"f59e5f9ba10ec50fdd1ebb41c75c6d54cfc634428620930b6ba6300847127241",
			"04dc4c548c3a478278a6a09ffa8b5c4b384368e49654b35a6961ee8288fc889cdc39e9f8194e41abdbfac248ef9dc3f37b131a36ee2c052d974c21c1d2cd56730b",
			"1e14d5373e1af9cc77f0032ad2cd0fba8be5ea2e",
		},
		{
			"stakeAddDeposit",
			"f8e60980825aa09404c22afae6a03438b8fed74cb1cf441168df3f1280b88434e8e14500000000000000000000000000000000000000000000000000000000000000070000000000000000000000000000000000000000000000000000000000000064000000000000000000000000000000000000000000000000000000000000006000000000000000000000000000000000000000000000000000000000000000008224c6a0b4af40981b992eab4f15afe1bab1d4c498069cae8fa4ea3e0800d732f282fadea073de47b280905d5ccd4fc329e9c1f10b0bdefe1f4a3f4f8b00918680428ae7dd",
			9,
			23200,
			"0",
			"0",
			"0x04C22AfaE6a03438b8FED74cb1Cf441168DF3F12",
			132,
			"8823b599b46cd907c4691aa71b5668b835be76a8358fa9beb866610e27598592",
			"04dc4c548c3a478278a6a09ffa8b5c4b384368e49654b35a6961ee8288fc889cdc39e9f8194e41abdbfac248ef9dc3f37b131a36ee2c052d974c21c1d2cd56730b",
			"1e14d5373e1af9cc77f0032ad2cd0fba8be5ea2e",
		},
		{
			"changeCandidate",
			"f9012609808273a09404c22afae6a03438b8fed74cb1cf441168df3f1280b8c4fb3d51380000000000000000000000000000000000000000000000000000000000000060000000000000000000000000000000000000000000000000000000000000000700000000000000000000000000000000000000000000000000000000000000a00000000000000000000000000000000000000000000000000000000000000004746573740000000000000000000000000000000000000000000000000000000000000000000000000000000000000000000000000000000000000000000000008224c6a06087932dec4df781917c12d31feb80c8e61b2317e3a0820401f3c095746a765da0549df65b7d94fdec196bc70e6dda056fec873664c064036e55fd3bc7e766a595",
			9,
			29600,
			"0",
			"0",
			"0x04C22AfaE6a03438b8FED74cb1Cf441168DF3F12",
			196,
			"23f29aebf4b193b02dd78866d56ea7a7b1cdbf27604d34868bb82993c216b4ec",
			"04dc4c548c3a478278a6a09ffa8b5c4b384368e49654b35a6961ee8288fc889cdc39e9f8194e41abdbfac248ef9dc3f37b131a36ee2c052d974c21c1d2cd56730b",
			"1e14d5373e1af9cc77f0032ad2cd0fba8be5ea2e",
		},
		{
			"unstake",
			"f8c609808252089404c22afae6a03438b8fed74cb1cf441168df3f1280b8642bde151d0000000000000000000000000000000000000000000000000000000000000007000000000000000000000000000000000000000000000000000000000000004000000000000000000000000000000000000000000000000000000000000000008224c6a0bd261cf9c6a2412272c660742a902965611d838176b2ad22b39219dadeedb312a02beef231cc90e4fbd6b928b28aea6ca1ccaf4f793f9d05bc0186e0e09b920a0a",
			9,
			21000,
			"0",
			"0",
			"0x04C22AfaE6a03438b8FED74cb1Cf441168DF3F12",
			100,
			"0c8560b135d325573e6aad484d71e2887835acce7fd4a78eddcb24efe6071516",
			"04dc4c548c3a478278a6a09ffa8b5c4b384368e49654b35a6961ee8288fc889cdc39e9f8194e41abdbfac248ef9dc3f37b131a36ee2c052d974c21c1d2cd56730b",
			"1e14d5373e1af9cc77f0032ad2cd0fba8be5ea2e",
		},
		{
			"withdrawStake",
			"f8c609808252089404c22afae6a03438b8fed74cb1cf441168df3f1280b864d179ffb50000000000000000000000000000000000000000000000000000000000000007000000000000000000000000000000000000000000000000000000000000004000000000000000000000000000000000000000000000000000000000000000008224c5a0526ec8247ce5ae1c8542776cf28a85c7bc2f17e1abc3de5cfbfd20fd85aeeca3a07a6db0a7ae08b6b6aeeae4a1446dcc6f090589e7835d63ebc0a1db783c5e2c89",
			9,
			21000,
			"0",
			"0",
			"0x04C22AfaE6a03438b8FED74cb1Cf441168DF3F12",
			100,
			"49cc2e14f3d1c03d7e36686d962995ea0f30f65f948d5a59181a5504bc58c102",
			"04dc4c548c3a478278a6a09ffa8b5c4b384368e49654b35a6961ee8288fc889cdc39e9f8194e41abdbfac248ef9dc3f37b131a36ee2c052d974c21c1d2cd56730b",
			"1e14d5373e1af9cc77f0032ad2cd0fba8be5ea2e",
		},
		{
			"restake",
			"f9010609808267209404c22afae6a03438b8fed74cb1cf441168df3f1280b8a44c4fee4b000000000000000000000000000000000000000000000000000000000000000700000000000000000000000000000000000000000000000000000000000000070000000000000000000000000000000000000000000000000000000000000000000000000000000000000000000000000000000000000000000000000000008000000000000000000000000000000000000000000000000000000000000000008224c5a0078638f1f00ab532522558e2e4f394f13bfe134a8687ac4639ebead60f63e0dba019dc91f08c1f422de44aa7e6b25ada0632f29bc22242900b3a60f7f371301f02",
			9,
			26400,
			"0",
			"0",
			"0x04C22AfaE6a03438b8FED74cb1Cf441168DF3F12",
			164,
			"c3d30b0fccf9d59ece79419d329e50082a8b6d86dee1b9f424f8852e154713d1",
			"04dc4c548c3a478278a6a09ffa8b5c4b384368e49654b35a6961ee8288fc889cdc39e9f8194e41abdbfac248ef9dc3f37b131a36ee2c052d974c21c1d2cd56730b",
			"1e14d5373e1af9cc77f0032ad2cd0fba8be5ea2e",
		},
		{
			"transferStake",
			"f8e60980825aa09404c22afae6a03438b8fed74cb1cf441168df3f1280b8849cb560bb0000000000000000000000003041a575c7a70021e3082929798c8c3fdaa9d8240000000000000000000000000000000000000000000000000000000000000007000000000000000000000000000000000000000000000000000000000000006000000000000000000000000000000000000000000000000000000000000000008224c5a07fd84321b04de059cbfdf12dcd383d3e554c569705f32035bc435b8d996c8bdba00df629ef4d9135d73bb60d49815761bc0a6ee7eb66770106dc9e809cd105d570",
			9,
			23200,
			"0",
			"0",
			"0x04C22AfaE6a03438b8FED74cb1Cf441168DF3F12",
			132,
			"a60b2546839e889a0ef89be4f224fb70dab3e4ddb6f65391ff708b01116593c1",
			"04dc4c548c3a478278a6a09ffa8b5c4b384368e49654b35a6961ee8288fc889cdc39e9f8194e41abdbfac248ef9dc3f37b131a36ee2c052d974c21c1d2cd56730b",
			"1e14d5373e1af9cc77f0032ad2cd0fba8be5ea2e",
		},
		{
			"candidateRegister",
			"f901c709808252089404c22afae6a03438b8fed74cb1cf441168df3f1280b90164bee5f7b700000000000000000000000000000000000000000000000000000000000001000000000000000000000000003041a575c7a70021e3082929798c8c3fdaa9d8240000000000000000000000003041a575c7a70021e3082929798c8c3fdaa9d8240000000000000000000000003041a575c7a70021e3082929798c8c3fdaa9d82400000000000000000000000000000000000000000000000000000000000000640000000000000000000000000000000000000000000000000000000000000007000000000000000000000000000000000000000000000000000000000000000000000000000000000000000000000000000000000000000000000000000001400000000000000000000000000000000000000000000000000000000000000004746573740000000000000000000000000000000000000000000000000000000000000000000000000000000000000000000000000000000000000000000000008224c5a07b4fd9921e47c13bb52fc5e0df47f4dc0bffcf6e7877e13c7e559b4a7d3b9825a0073a3a029822aa43506834bef8b1ed30d6bb436d758d7cf583deb48a4efefd6a",
			9,
			21000,
			"0",
			"0",
			"0x04C22AfaE6a03438b8FED74cb1Cf441168DF3F12",
			356,
			"9aa470cbdc3b3fd8f51aae4770d6a58cf4016be18201f0efbae6d83d0b2aa096",
			"04dc4c548c3a478278a6a09ffa8b5c4b384368e49654b35a6961ee8288fc889cdc39e9f8194e41abdbfac248ef9dc3f37b131a36ee2c052d974c21c1d2cd56730b",
			"1e14d5373e1af9cc77f0032ad2cd0fba8be5ea2e",
		},
		{
			"candidateUpdate",
			"f9010609808252089404c22afae6a03438b8fed74cb1cf441168df3f1280b8a4435f9f2200000000000000000000000000000000000000000000000000000000000000600000000000000000000000003041a575c7a70021e3082929798c8c3fdaa9d8240000000000000000000000003041a575c7a70021e3082929798c8c3fdaa9d824000000000000000000000000000000000000000000000000000000000000000474657374000000000000000000000000000000000000000000000000000000008224c6a04df6545da871debef84476198e76167d4dfe6fb83098a5a49dbab734352f20f1a0220686494f8b09751bbeb5c63729e7ecc5c504f952c67e926461db98588854b6",
			9,
			21000,
			"0",
			"0",
			"0x04C22AfaE6a03438b8FED74cb1Cf441168DF3F12",
			164,
			"7a8d96d35c939bf1634d587b1f471c0f3f96ba750d64d43289c9eef267718ef0",
			"04dc4c548c3a478278a6a09ffa8b5c4b384368e49654b35a6961ee8288fc889cdc39e9f8194e41abdbfac248ef9dc3f37b131a36ee2c052d974c21c1d2cd56730b",
			"1e14d5373e1af9cc77f0032ad2cd0fba8be5ea2e",
		},
	}

	for _, v := range rlpTests {
		encoded, err := hex.DecodeString(v.raw)
		require.NoError(err)

		// decode received RLP tx
		tx := types.Transaction{}
		require.NoError(rlp.DecodeBytes(encoded, &tx))

		// extract signature and recover pubkey
		w, r, s := tx.RawSignatureValues()
		recID := uint32(w.Int64()) - 2*config.EVMNetworkID() - 8
		sig := make([]byte, 64, 65)
		rSize := len(r.Bytes())
		copy(sig[32-rSize:32], r.Bytes())
		sSize := len(s.Bytes())
		copy(sig[64-sSize:], s.Bytes())
		sig = append(sig, byte(recID))

		// recover public key
		rawHash := types.NewEIP155Signer(big.NewInt(int64(config.EVMNetworkID()))).Hash(&tx)
		pubkey, err := crypto.RecoverPubkey(rawHash[:], sig)
		require.NoError(err)
		require.Equal(v.pubkey, pubkey.HexString())
		require.Equal(v.pkhash, hex.EncodeToString(pubkey.Hash()))

		// convert to our Execution
		pb := &iotextypes.Action{
			Encoding: iotextypes.Encoding_ETHEREUM_RLP,
		}
		pb.Core = convertToNativeProto(&tx, v.actType)
		pb.SenderPubKey = pubkey.Bytes()
		pb.Signature = sig

		// send on wire
		bs, err := proto.Marshal(pb)
		require.NoError(err)

		// receive from API
		proto.Unmarshal(bs, pb)
		selp := SealedEnvelope{}
		require.NoError(selp.LoadProto(pb))
		act, ok := selp.Action().(EthCompatibleAction)
		require.True(ok)
		rlpTx, err := act.ToEthTx()
		require.NoError(err)

		// verify against original tx
		require.Equal(v.nonce, rlpTx.Nonce())
		require.Equal(v.price, rlpTx.GasPrice().String())
		require.Equal(v.limit, rlpTx.Gas())
		if v.to == "" {
			require.Nil(rlpTx.To())
		} else {
			require.Equal(v.to, rlpTx.To().Hex())
		}
		require.Equal(v.amount, rlpTx.Value().String())
		require.Equal(v.dataLen, len(rlpTx.Data()))
		h, err := selp.Hash()
		require.NoError(err)
		require.Equal(v.hash, hex.EncodeToString(h[:]))
		require.Equal(pubkey, selp.SrcPubkey())
		require.True(bytes.Equal(sig, selp.signature))
		raw, err := selp.envelopeHash()
		require.NoError(err)
		require.True(bytes.Equal(rawHash[:], raw[:]))
		require.NotEqual(raw, h)
		require.NoError(selp.VerifySignature())
	}
}

func convertToNativeProto(tx *types.Transaction, actType string) *iotextypes.ActionCore {
	elpBuilder := &EnvelopeBuilder{}
	elpBuilder.SetGasLimit(tx.Gas()).SetGasPrice(tx.GasPrice()).SetNonce(tx.Nonce())
	switch actType {
	case "transfer":
		tsf := &Transfer{}
		tsf.amount = tx.Value()
		ioAddr, _ := address.FromBytes(tx.To().Bytes())
		tsf.recipient = ioAddr.String()
		tsf.payload = tx.Data()
		elpBuilder.SetAction(tsf)
	case "execution":
		ex := &Execution{}
		ex.amount = tx.Value()
		if tx.To() != nil {
			ioAddr, _ := address.FromBytes(tx.To().Bytes())
			ex.contract = ioAddr.String()
		}
		ex.data = tx.Data()
		elpBuilder.SetAction(ex)
	case "stakeCreate", "stakeAddDeposit", "changeCandidate", "unstake", "withdrawStake", "restake",
		"transferStake", "candidateRegister", "candidateUpdate":
		act, _ := NewStakingActionFromABIBinary(tx.Data())
		elpBuilder.SetAction(act.(actionPayload))
	default:
		panic("unsupported")
	}
	return elpBuilder.Build().Proto()
}
